:020000040800F2
:1000000048050020650100082F220008FB1B00089E
:100010002D220008190300082D2800080000000008
:10002000000000000000000000000000092300089C
:100030001B03000800000000512200080B230008E9
:100040007F0100087F0100087F0100087F01000890
:100050007F0100087F0100087F0100087F01000880
:100060007F0100087F0100087F0100087F01000870
:100070007F0100087F0100087F0100087F01000860
:100080007F0100087F0100087F0100087F01000850
:100090007F0100087F0100087F0100087F01000840
:1000A0007F0100084D2500087F0100087F0100083E
:1000B0007F0100087F0100087F0100087F01000820
:1000C0007F0100087F0100087F0100087F01000810
:1000D0007F0100087F0100087F0100087F01000800
:1000E0007F0100087F0100087F0100080000000078
:1000F0000000000000000000000000000000000000
:1001000000000000000000007F0100087F010008DF
:100110007F0100087F0100087F0100087F010008BF
:100120007F0100087F0100087F0100087F010008AF
:100130007F0100087F0100087F0100087F0100089F
:100140007F0100087F0100087F0100087F0100088F
:10015000DFF80CD000F070F800480047352900089F
:10016000480500200648804706480047FEE7FEE7AE
:10017000FEE7FEE7FEE7FEE7FEE7FEE7FEE7FEE757
:10018000AD230008510100082DE9F05F054600206D
:1001900092469B4688460646814640241BE02846F8
:1001A00041464746224600F020F853465A46C01AB8
:1001B000914110D311461846224600F02DF82D1A11
:1001C00067EB01084F4622460120002100F024F889
:1001D00017EB00094E41201EA4F10104DFDC484664
:1001E00031462A464346BDE8F09F202A04DB203AE8
:1001F00021FA02F00021704721FA02F3D040C2F147
:1002000020029140084319467047421C10F8011B18
:100210000029FBD1801A7047202A04DB203A00FA1B
:1002200002F1002070479140C2F1200320FA03F34D
:100230001943904070470000064C074D06E0E06807
:1002400040F0010394E8070098471034AC42F6D31D
:10025000FFF782FF8C3F0008AC3F000870B50446F2
:1002600000688168C943C9071CD1816821F0010178
:10027000816000F0D9FB05460FE000BF00F0D4FB21
:10028000401B022809D9A06A40F01000A062E06A71
:1002900040F00100E062012070BD20688068C0432A
:1002A000C007EBD0002070BDF8B5002604460096CC
:1002B00000688168C943C90728D0816841F00101FD
:1002C0008160134813490068B0FBF1F000E0401E64
:1002D00000900028FBD100F0A7FB054611E000BF0D
:1002E00000F0A2FB401B02280BD9A06A40F01000CE
:1002F000A062E06A40F00100E06284F8246001201E
:10030000F8BD20688068C043C007E9D10020F8BD6F
:100310002000002040420F00FEE77047F8B500259E
:100320000446009590F82400012808D0012084F8A4
:1003300024002046FFF792FF060002D04BE0022087
:10034000F8BDA06A20F4885040F00200A0620220AC
:1003500000F028FC22490968B1FBF0F0400000E001
:10036000401E00900028FBD12046FFF79DFF20682B
:10037000816841F00801816000F056FB074604E007
:1003800000F052FBC01B0A2811D8206880680007C3
:10039000F6D42068816841F00401816000F044FBDC
:1003A00007460EE000F040FBC01B0A2809D9A06AEE
:1003B00020F0020040F01000A06284F824500120D8
:1003C000F8BD206880684007ECD4A06A20F00200E5
:1003D00040F00100A06284F824503046F8BD0000CF
:1003E00020000020F8B50024009490F82420254631
:1003F000012A12D0012280F824204A681F23072AEC
:100400000DD20668776B521E02EB820293409F4327
:100410000B6893401F43776319E00220F8BD06681C
:100420000D2A0AD2376BD21F02EB820293409F4300
:100430000B6893401F43376309E0F76A0D3A02EBFC
:10044000820293409F430B6893401F43F7620A6800
:10045000072306680A2A0AD3F7680A3A02EB42021F
:1004600093409F438B6893401F43F76008E03769D0
:1004700002EB420293409F438B6893401F433761D6
:100480000A68102A01D0112A20D1124B02689A4220
:1004900017D193681B0219D4936843F40003936047
:1004A0000968102912D10C490C4A0968B1FBF2F114
:1004B00001EB8101490000E0491E00910029FBD1B8
:1004C00004E0816A41F020018162012480F8245017
:1004D0002046F8BD002401402000002040420F00CB
:1004E0000068C06C704700002DE9F0414FF0000734
:1004F00004003D467ED0A06A002628B9E66284F852
:100500002460204600F07EF82046FFF7A7FEA16A8F
:1005100001F01001014304D0A06A40F01000A06275
:1005200068E0A16A21F4885141F00201A162626889
:10053000E169E3680A4347EA43010A43A1684FF4CB
:100540008077B94208D0012906D00021D4F814C020
:10055000BCF1010F02D00AE03946F7E7F3B1A36A14
:1005600043F02003A362E36A43F00103E3622368DC
:10057000D3F804C02CF4694C4CEA010CC3F804C055
:1005800023689968DFF870C001EA0C011143996093
:10059000A168B9420BD0012909D00CE0DFF85CC09A
:1005A000A3690CEB43330B4343F40061DFE7218A7B
:1005B0000D05A5F580152168CB6A23F470032B4344
:1005C000CB62216889680E4B1940914208D1E662DE
:1005D000A16A21F0020141F00101A162BDE8F081B0
:1005E000A06A20F0020040F01000A062E06A40F033
:1005F0000100E0620120F1E7FDF7E1FF00E0FFFF0D
:10060000FE0E1FFF00B500680B4985B0884210D16F
:100610000A48816941F4007181618069694600F48A
:10062000007004901020009003200190044800F016
:1006300013F905B000BD0000002401400010024085
:10064000001001402DE9F84300260D4604460096AF
:1006500000F0EAF9804620688168C90508D5A06ADB
:1006600040F02000A06284F824600120BDE8F883F7
:100670004168C90503D4C06A10F4700F26D0022067
:1006800000F090FA38490968B1FBF0F72068036977
:1006900036490B424FEA61014FEAA1121BD1C368F0
:1006A0004FEA611C13EA0C0F15D103690B4221D1EB
:1006B000C06810421ED114201FE0681C06D045B34C
:1006C00000F0B2F9A0EB0800A84222D82068006828
:1006D0008007F2D52AE003690B4202D1C1681142BA
:1006E00006D0026922490A4206D1C068084203D1F5
:1006F000542002E0292000E0FC204743009813E04A
:10070000681C0ED02DB100F08FF9A0EB0800A842B4
:1007100007D9A06A40F00400A06284F82460032096
:10072000A4E70098401C0090B842E9D321686FF01C
:1007300012000860A06A40F40070A062206880681F
:10074000C0F3424007280CD1E06850B9A06A20F4F9
:100750008070A062A06AC00403D4A06A40F00100C7
:10076000A062002082E7000020000020244992249B
:100770004992240070B5044690F8240001280DD059
:10078000012084F824002046FFF78EFD02004FF080
:10079000000005D084F82400104670BD022070BD12
:1007A000A16A40F20123994341F48071A1621F4D77
:1007B00023681F49AB4218D10E6816F4702F14D06D
:1007C000A66A46F48016A6620E68760505D5A66A66
:1007D00026F4005646F48056A662A66AF6040AD5A8
:1007E000E66A26F00606E66206E0A66A26F48016A9
:1007F000A6625E68E9E7E06284F824006FF0020018
:10080000186020688368C3F34243072B05D1A842D0
:1008100008D1096811F4702F04D0816841F4801167
:100820008160B9E7816841F4A001F9E7002801403F
:100830000424014070B5044600F0F6F80546601C3B
:1008400002D004480078044400F0EEF8401BA042B7
:10085000FAD370BD000000202DE9F84FDFF890A119
:1008600000220AF1040B144601274FF00F090BF187
:10087000040E00BF0B6807FA04F52B40AB4274D19D
:10088000DFF870C14E68A6EB0C0866452BD00DDC76
:10089000032E34D005DC36B3012E19D0022E2FD111
:1008A0001BE0112E16D0122E2AD119E0B8F5881FA0
:1008B00019D006DCB8F5803F15D0B8F5801F1FD1E0
:1008C00011E0B8F5001F0ED0B8F5041F18D10AE0EA
:1008D000CA6815E0CA68121D12E0CA6808320FE043
:1008E000CA680C320CE08A682AB1012A4FF008026B
:1008F00003D0456104E0042202E0056100E000222B
:10090000FF2B01D8064601E000F104064FEA8405FA
:1009100001D9A5F12005D6F800C009FA05F82CEA9E
:10092000080C02FA05F54CEA050CC6F800C04D6843
:10093000ED0057D5304DAE6946F00106AE61AD69A8
:1009400024F0030605F0010500952C4D06EB050C7F
:10095000DCF80850A6074FEA167809FA08F6B543FE
:10096000274EB04202D1002610E03BE0254EB042B7
:1009700001D101260AE0244EB04201D1022605E051
:10098000224EB04201D1032600E0042606FA08F602
:100990002E43CCF808604D68DAF80060ED03554648
:1009A00001D51E4300E09E432E604D68DBF80060D9
:1009B000AD035D4601D51E4300E09E432E604D68A9
:1009C000DEF80060ED02754601D51E4300E09E434F
:1009D0002E604D68AD020E4D2E6801D51E4300E01D
:1009E0009E432E60641C102CFFF444AFBDE8F88FCA
:1009F00000040140000011100010024000000140FE
:100A000000080140000C01400010014000140140AA
:100A10000C0401408068084000D0012070470AB1F2
:100A2000016170470904FBE70148806870470000D6
:100A300000000020024881680278114481607047FC
:100A400000000020074810B5016841F01001016066
:100A5000032000F095F8002000F006F800F024F8DC
:100A6000002010BD0020024070B50D4D04464FF42B
:100A70007A712878B1FBF0F00A490968B1FBF0F00F
:100A800000F041FE48B9102C07D200222146501E2A
:100A900000F056F800206C6070BD012070BD0000B1
:100AA00000000020200000201D4808B5816941F0A9
:100AB00001018161806900F001000090032000F0D5
:100AC0005FF8002211466FF00B0000F039F80022A9
:100AD00011466FF00A0000F033F8002211466FF063
:100AE000090000F02DF800221146501F00F028F8F0
:100AF00000221146101F00F023F800221146901E1C
:100B000000F01EF800221146501E00F019F80548AA
:100B1000416821F0E06141F08061416008BD000062
:100B2000001002400000014000F01F02012191402E
:100B30004009800000F1E020C0F80011704700007B
:100B4000F0B40E4B1B680C46C3F30223C3F1070538
:100B5000042D00D90425191D072901D2002300E026
:100B6000DB1E012606FA05F1491E214099409E40F0
:100B7000761E16403143F0BC01F05ABB0CED00E08C
:100B8000064900F0070208684FF6FF03184040EAE4
:100B90000220034A10430860704700000CED00E09B
:100BA0000000FA0530B542A401461DCC89B004AD61
:100BB00085E81D0042A41DCC8DE81D000020444B9B
:100BC000444C042941D00BDC012959D002293AD1E7
:100BD00000F00AFA6168C1F38131491C490030E034
:100BE000082948D010292ED162682168C9012AD568
:100BF00004A8C2F38341415CD0031BD5E06AE26ADA
:100C000000F00F001DF80000D2030AD5E26AC2F31B
:100C10000315E26A6D1CB3FBF5F3C2F30322921CC9
:100C20005343B3FBF0F09DF81D2048438A4203D1A3
:100C3000400801E0284848436168490203D4400065
:100C40000321B0FBF1F009B030BDE16A890314E083
:100C500000F0DAF9F7E72168C900F4D5E06AE16A43
:100C6000C0F30310401CB3FBF0F0C1F30331891C47
:100C700048434000E7E7E16A49030029EBDBE7E787
:100C8000226AC2F30121012903D1920701D5C803C9
:100C9000D9E7022905D1626A920702D549F6404098
:100CA000D1E70329CFD121688903CCD50B48CAE706
:100CB000000004050607080900000000000D000000
:100CC0000102030405060708090A0B0C0D0E0F109C
:100CD00040787D010010024000093D00F0FA02005A
:100CE0002DE9F843044600785B4DC0074FF0010939
:100CF00051D0E8690026C00008D4E86940F080506F
:100D0000E861E869012600F08050009053480168CE
:100D1000C90512D40168804641F480710160FFF773
:100D200083FE074605E000BFFFF77EFEC01B642878
:100D300077D8D8F80000C005F6D5286A10F44070BE
:100D40001ED0A18801F44071814219D0286A44491B
:100D500020F44070C1F8009000220A602862C007A9
:100D60000ED0FFF761FE074641F2883805E000BF6C
:100D7000FFF75AFEC11B414553D8286A8007F7D5B3
:100D8000286A616820F44070084328621EB1E8694F
:100D900020F08050E8612078800705D56868A16858
:100DA00020F44040084368602078400705D5E86A91
:100DB000E16820F400300843E8622078000705D598
:100DC000E86A216920F480200843E862E86A800329
:100DD00002D4E86A400333D52868C00028D42868C4
:100DE000400105D5E86AA16900F0F000884225D1EC
:100DF000E86AA16920F0F0000843E862E86A6169E6
:100E000020F470400843E8621649C1F87090FFF77B
:100E10000BFE064608E004E0FFF706FE801B642890
:100E200002D90320BDE8F88328688000F4D507E0E4
:100E3000E86A616900F47040884201D00120F1E75E
:100E40002078C00605D56868E16920F48000084371
:100E500068600020E6E700000010024000700040DB
:100E600040044242000042422DE9F047DFF83C8155
:100E700005460E46D8F8000000F00700B0420CD23C
:100E8000D8F8001021F007013143C8F80010D8F855
:100E9000000000F00700B04263D12878444C80077E
:100EA00005D56068A96820F0F000084360602878E4
:100EB000C00745D06868012816D02168022816D0DE
:100EC000890700294DDA616821F00301014361605F
:100ED000FFF7AAFD6968074641F2883001290FD063
:100EE0000229814619D027E021688903E9E78901B1
:100EF000E7E700BFFFF798FDC11B494501D918E09E
:100F000081466068C0F381000128F3D118E000BF7A
:100F1000FFF78AFDC11B49450BD86068C0F381000B
:100F20000228F5D10CE000BFFFF77EFDC11B49454B
:100F300002D90320BDE8F087606810F00C0FF3D1F0
:100F4000D8F80010404601F00701B1420BD9016802
:100F500021F0070131430160006800F00700B04252
:100F600001D00120E6E72878400705D56068E968E8
:100F700020F4E060084360602878000706D56068C8
:100F8000296920F4605040EAC100606000F03CF83C
:100F90006168084AC1F30311515CC8400649086002
:100FA0000020FFF761FD0020C4E7000000200240A0
:100FB00000100240A42D0008200000200148006815
:100FC0007047000020000020044805490068496877
:100FD000044AC1F30221515CC84070472000002040
:100FE00000100240B42D0008044805490068496813
:100FF000044AC1F3C221515CC84070472000002060
:1010000000100240B42D0008F0B524A289B00FCA28
:1010100004AC84E80F0025A10FC98DE80F00274814
:10102000416801F00C02042A04D0082A04D02448A4
:1010300009B0F0BD2348FBE704AAC1F38343C90309
:10104000D45C28D5C16AC26A01F00F011DF80110F5
:10105000D20316D5C26AC06AC2F30312521CA2FBA5
:101060000123C0F30320801CA0FB0415154F0026AC
:10107000A1FB070C05FB07C501FB0651FFF784F830
:1010800003E010486043B0FBF1F09DF81D10A14251
:10109000CED14008CCE70C486043C9E70000040506
:1010A0000607080900000000000D0000010203040B
:1010B00005060708090A0B0C0D0E0F100010024060
:1010C00000127A0040787D0100093D002DE9F84FBB
:1010D00004460078EA4DC00748D06868C0F3810034
:1010E000012807D06868C0F38100022809D1686828
:1010F000C00306D52868800338D5A06800286FD0C3
:1011000034E0A068B0F5803F0BD010B1B0F5A02F4F
:1011100011D0286820F480302860286820F48020CE
:1011200002E0286840F480302860A06888B1FFF7AA
:101130007BFC064609E0286840F480202860F0E740
:10114000FFF772FC801B642878D828688003F7D5E5
:101150000CE0FFF769FC064605E000BFFFF764FC02
:10116000801B6428F0D828688003F7D42078C54E07
:1011700080074FF001094FF000073CD5686810F078
:101180000C0F07D06868C0F38100022809D1686895
:10119000C00306D42868800715D5606901281FD1CF
:1011A00011E06069B8B1C6F80090FFF73DFC8046D9
:1011B00006E000BFFFF738FCA0EB08000228C3D808
:1011C00028688007F6D52868A16920F0F80040EA71
:1011D000C10028600FE03760FFF726FC804607E07B
:1011E0002DE100BFFFF720FCA0EB08000228ABD8E0
:1011F00028688007F6D4207800072ED5A248E16938
:10120000E9B1C0F80090FFF70FFC804606E000BF90
:10121000FFF70AFCA0EB0800022895D8686A80074F
:10122000F6D59A484FF4FA510068B0FBF1F00090FF
:1012300000BF0098411E0091FAD20EE0B0E00760B6
:10124000FFF7F2FB804605E0FFF7EEFBA0EB08009E
:10125000022887D8686A8007F6D42078400763D5CB
:10126000E8694FF00008C00009D4E86940F08050F8
:10127000E861E8694FF0010800F080500090844870
:101280000168C90512D40168834641F48071016088
:10129000FFF7CAFB824605E0FFF7C6FBA0EB0A009A
:1012A00064287DD8DBF80000C005F5D52069012849
:1012B0000AD008B1052813D0286A20F0010028625E
:1012C000286A20F0040002E0286A40F00100286249
:1012D000206941F2883B98B1FFF7A6FB82460BE0FC
:1012E000286A40F004002862EEE700BFFFF79CFB8D
:1012F000A0EB0A01594553D8286A8007F6D50CE0BF
:10130000FFF792FB824605E0FFF78EFBA0EB0A0198
:10131000594545D8286A8007F6D4B8F1000F03D0A4
:10132000E86920F08050E861E06AD0B36968C903D9
:1013300007D56968C1F38101022902D1E96AC903AD
:101340007DD4022808D0E86A20F48030E862B766CD
:10135000FFF76AFB80463BE02868C00005D5E86AD5
:10136000616B00F0F000884269D1B766FFF75CFB63
:10137000804605E0FFF758FBA0EB0800642874D80E
:1013800028680001F6D4E86A616B20F0F000084399
:10139000E862E86A216B20F470600843E86201E0CB
:1013A00063E018E0C6F86890FFF73EFB804605E072
:1013B000FFF73AFBA0EB0800642856D82868000124
:1013C000F6D508E0FFF730FBA0EB080064284CD806
:1013D00028680001F6D4206A90B36968C1F38101DE
:1013E00002294AD00228376603D0FFF71DFB0446C6
:1013F0003EE0FFF719FB074605E000BFFFF714FBCF
:10140000C01B022831D828688001F7D4606AB0F583
:10141000803F09D1E86A61680843E862E86AE168E8
:1014200020F00F000843E862D4E909010843696825
:1014300021F4741108436860C6F8609001E01CE074
:1014400019E0FFF7F1FA044605E000BFFFF7ECFAF8
:10145000001B022809D828688001F7D50BE000BFDF
:10146000FFF7E2FA001B022802D90320BDE8F88F3B
:1014700028688001F4D40020F8E70120F6E7000096
:10148000001002400000424280044242200000203E
:101490000070004090F85100704770B5040005D00E
:1014A0000025A56294F8510010B104E0012070BD40
:1014B000204600F033F8022084F8510020680168CB
:1014C00021F040010160D4E901010843D4E903128D
:1014D0001143084361690843218B01F400710843FB
:1014E000E1690843216A0843A16A0843216808604A
:1014F000A069042101EA1040616A0843216848603C
:101500002168E06A08612068C16921F40061C16155
:101510006565012084F85100002070BD10B5006899
:10152000144986B0884222D11348C16941F4004170
:10153000C161C069114C00F4004004904FF4A05008
:101540000090022001900320039069462046FFF797
:1015500083F90021E014CDE900010291694620469B
:10156000FFF77AF90648416841F0B851416006B08A
:1015700010BD0000003C004000100240001001407F
:10158000000001402DE9F84F044690F85000002675
:10159000994617460D4601280DD04FF0010B84F8EF
:1015A00050B0FFF741FA804694F85100B246012846
:1015B00004D0022694E00220BDE8F88F002D7BD0F5
:1015C000002F79D0032084F85100C4F854A025637B
:1015D000A786E786C4F838A0A4F83CA0A4F83EA0EB
:1015E000C4F844A0C4F840A0A068B0F5004F04D1EE
:1015F0002068016841F48041016020680168490663
:1016000003D4016841F040010160E068B0F5006F6B
:10161000606804D030B3E08E012823D03EE010B1E2
:10162000E08E01281AD135F8021B206805E02068F9
:101630008168890706D535F8021BC160E08E401E1F
:10164000E0860BE0B9F1000F34D0B9F1FF3F05D0CF
:10165000FFF7EAF9A0EB080149452BD2E08E0028FC
:10166000E5D11EE0216815F8010B087306E020683B
:101670008168890706D515F8011B0173E08E401EAD
:10168000E0860BE0B9F1000F14D0B9F1FF3F05D0AF
:10169000FFF7CAF9A0EB080149450BD2E08E0028FC
:1016A000E5D14B46012202212046CDF8008000F012
:1016B000E0FD10B1032613E011E042464946204602
:1016C00000F0C7FD18B101262020606508E0A06881
:1016D00018B92068C16880680090606D00B101266B
:1016E00084F851B084F850A0304665E74FF0E0210F
:1016F0000428086903D020F004000861704740F016
:101700000400FAE7704710B5401EB0F1807F01D3A6
:10171000012010BD4FF0E02460610F21601700F040
:1017200087FD0020A06107202061002010BD10B5BA
:10173000FFF7E8FF10BD7047704730B590F83C20C8
:10174000012A20D0012280F83C20022380F83D307D
:1017500003685C6824F070045C6003685C680D6872
:101760002C435C6003689C6824F080049C600368E0
:101770009C6849680C439C6080F83D20002180F8FB
:101780003C10084630BD022030BD10B5040003D027
:1017900094F83D0010B107E0012010BD002084F84E
:1017A0003C00204600F00CF8022084F83D00211D8A
:1017B000206800F0DDFE012084F83D00002010BD0F
:1017C00008B500680B49884212D10B48816941F481
:1017D000006181618069002200F4006000900121B5
:1017E0001920FFF7ADF9BDE808401920FFF79CB9B3
:1017F00008BD0000002C0140001002400168CA68CA
:1018000042F00102CA600068016841F00101016014
:101810000020704770B5044690F83C00012817D0AE
:10182000012584F83C50022084F83D00206882683D
:1018300022F0770222F47F4282600868502837D075
:101840000DDC202859D005DC88B3102841D151E0A7
:10185000022070BD302853D040283AD13FE06028A4
:101860002ED070280BD0B0F5805F03D0B0F5005FAC
:101870002FD110E02068816821F0070115E0CB68C6
:10188000D1E90121206800F0B1FE2168886840F0AC
:10189000770088601DE0CB68D1E90121206800F065
:1018A000A5FE2068816841F48041816011E01EE05E
:1018B000CA684968206800F0ABFE5021206806E045
:1018C000CA684968206800F0B4FE6021206800F012
:1018D00097FE84F83D50002084F83C0070BDCA6833
:1018E0004968206800F094FE40212068EFE700215D
:1018F0002068ECE710212068E9E720212068E6E76E
:1019000030212068E3E7704770B50446006801693C
:101910004FF00005C943890715D4C168C943890739
:1019200011D4E91E016101202077206880698007B9
:10193000204602D0FFF7E7FF04E000F098F82046C9
:1019400000F096F8257720680169C943490717D444
:10195000C168C943490713D46FF004010161022033
:1019600020772068806910F4407F204602D0FFF77E
:10197000CAFF04E000F07BF8204600F079F82577F4
:1019800020680169C943090716D4C168C94309071A
:1019900012D46FF008010161042020772068C0692B
:1019A0008007204602D0FFF7AEFF04E000F05FF8AA
:1019B000204600F05DF8257720680169C943C90613
:1019C00017D4C168C943C90613D46FF0100101616F
:1019D000082020772068C06910F4407F204602D09C
:1019E000FFF791FF04E000F042F8204600F040F8D5
:1019F000257720680169C943C90708D1C168C9436F
:101A0000C90704D1891E0161204600F032F8206820
:101A10000169C943090609D4C168C943090605D447
:101A20006FF0800101612046FFF785FE20680169A3
:101A3000C943490609D4C168C943490605D46FF0B2
:101A400040010161204600F015F820680169C94392
:101A500089060BD4C168C943890607D46FF02001F9
:101A600001612046BDE87040FFF766BE70BD70475B
:101A700070477047704770B5040004D094F839007F
:101A8000002510B106E0012070BD84F838502046D2
:101A900000F022F8242084F839002068C16821F47D
:101AA0000051C160204600F0D7FD2068016921F493
:101AB000904101612068416921F02A01416120685B
:101AC000C16841F40051C160E563202084F8390009
:101AD00084F83A00002070BD10B50068144986B043
:101AE000884223D11348C16941F40031C161C06902
:101AF000114C00F40030049020200090022001904E
:101B00000320039069462046FEF7A6FE00214020F0
:101B1000CDE90001029169462046FEF79DFE074887
:101B2000416841F0E06141F00801416006B010BD3C
:101B30000044004000100240001401400000014039
:101B40002DE9F843044690F839001F4616460D4625
:101B5000202850D1A5B19EB194F8380001284AD070
:101B6000012084F838004FF00008C4F83C802120A0
:101B700084F83900FEF758FFA6848146E68426E003
:101B80000120BDE8F883E08C401EE084A0684B464D
:101B9000B0F5805F4FF000024FF0800120460097C3
:101BA00003D000F011FEE8B90DE000F00DFEC8B959
:101BB00028882168C0F308004860206908B16D1CBE
:101BC00005E0AD1C03E0216815F8010B4860E08CCE
:101BD0000028D8D14B46002240212046009700F033
:101BE000F3FD08B10320CCE7202084F8390084F805
:101BF00038800020C5E70220C3E7FEE701B50022D8
:101C00004FF480710748FEF70AFFC8230122694696
:101C10000548FFF7B7FC0448FFF73CFC0328FAD05F
:101C200008BD0000001001406C00002070B50646A1
:101C3000002440F23F11204600F078F800F0ACF9A3
:101C40004FF49635304600F08BF9641CAC42F9D362
:101C5000BDE87040012211020148FEF7E0BE00001D
:101C600000100140203AD2B2034B02EB420203EBD8
:101C7000021200F01BB80000BC2D00082DE9F04155
:101C80000E460746002540F23F1407E0214638463D
:101C9000FFF7E8FF103C6D1CA4B2761C3278002AD6
:101CA00001D0142DF2D3BDE8F08100002DE9F74FEB
:101CB000914604460026019900F038F8DFF8548078
:101CC000DFF854B001274FF4807A00BF00F064F9C8
:101CD0005FF0000539F8160007FA05F108424046A2
:101CE00001D1408800E0008800F03AF96D1C102D09
:101CF000F0D3012251465846FEF791FE641CE4B22F
:101D00002046019900F012F8761C182EDED3BDE8AB
:101D1000FE8F0000240000200010014001B5BDF836
:101D200000000149488008BD2400002010B50C4681
:101D30000146202000F03AF92146BDE8104021205C
:101D400000F034B901B5BDF800000149088008BDB4
:101D50002400002010B5012280218048FEF75FFE9C
:101D60003220FEF767FD4FF40041E52000F01EF938
:101D70000121002000F01AF94FF48071012000F0D9
:101D800015F94FF4E061022000F010F941F2300142
:101D9000032000F00BF90021042000F007F940F2C5
:101DA0000221082000F002F90021092000F0FEF8CD
:101DB00000210A2000F0FAF800210C2000F0F6F8CB
:101DC00000210D2000F0F2F800210F2000F0EEF8C5
:101DD0000021102000F0EAF80021112000F0E6F8C0
:101DE0000021122000F0E2F80021132000F0DEF8BC
:101DF000C820FEF71FFD41F2B071102000F0D6F8A8
:101E000040F23711112000F0D1F83220FEF712FD18
:101E100040F23911122000F0C9F83220FEF70AFD15
:101E20004FF4E851132000F0C1F81321292000F0ED
:101E3000BDF83220FEF7FEFC0021202000F0B6F8AD
:101E40000021212000F0B2F80621302000F0AEF889
:101E500040F20111312000F0A9F80321322000F0F6
:101E6000A5F84FF48371352000F0A0F840F6023158
:101E7000362000F09BF840F20231372000F096F84F
:101E800040F20771382000F091F80721392000F066
:101E90008DF84FF4C0613C2000F088F840F20B212F
:101EA0003D2000F083F80021502000F07FF8EF2162
:101EB000512000F07BF80021522000F077F840F22A
:101EC0003F11532000F072F84FF42741602000F0DA
:101ED0006DF80121612000F069F800216A2000F00E
:101EE00065F80021802000F061F80021812000F0D9
:101EF0005DF80021822000F059F80021832000F0D5
:101F000055F80021842000F051F80021852000F0D0
:101F10004DF81021902000F049F80021922000F0A7
:101F200045F80321932000F041F84FF48871952083
:101F300000F03CF80021972000F038F800219820AC
:101F400000F034F841F21801032000F02FF8BDE84A
:101F5000104040F27311072000F028B8001401402F
:101F600001B5C82301220B480DF10101FFF70AFB5F
:101F70000848FFF78FFA0328FAD0C82301226946E0
:101F80000448FFF7FFFA0348FFF784FA0328FAD062
:101F900008BD00006C00002010B5222000F02EF8D3
:101FA000BDE810407220FFF729BE000013B500F015
:101FB00025F87220FFF722FEC82301220DF105014A
:101FC0000C48FFF7DFFA0B48FFF764FA0328FAD052
:101FD000C823012201A90748FFF7D4FA0548FFF7F3
:101FE00059FA0328FAD0012211020348FEF717FD1F
:101FF0001CBD00006C0000200010014001B57020E5
:10200000FFF7FCFD0C49002008600C48FFF742FA7E
:102010000328FAD0C823012269460848FFF7B2FA1C
:102020000648FFF737FA0328FAD0012211020448C4
:10203000FEF7F5FC08BD00000C3C00406C000020E1
:10204000001001403EB50F480D49002501600124F4
:10205000C0E90254456145604FF460210461C161EB
:10206000FEF742FA00B1FEE70E208DE83100694626
:102070000448FEF7B7F9002800D0FEE73EBD000097
:10208000002401403C0000202DE9F0473B4886B089
:10209000816941F040018161816901F04001049151
:1020A000816941F004018161816901F004010491B9
:1020B000816941F010018161816901F01001049191
:1020C000816941F008018161816901F00801049191
:1020D000816941F0200181618069DFF8A48000F00E
:1020E000200004900022E0214046FEF798FCDFF833
:1020F00094904FF48077002239464846FEF78FFCD3
:10210000DFF884A0002280215046FEF788FC0024DE
:102110001820CDE90004694640460294FEF79CFB76
:10212000E0200125CDE900050226694603964046D8
:10213000FEF792FB4FF6F070CDE9000469461348B4
:102140000294FEF789FB41F6FE70CDE90004694672
:102150000F480294FEF780FBCDE9007569464846BA
:102160000396FEF779FB8020CDE9000569460396CA
:102170005046FEF771FB06B0BDE8F0870010024044
:102180000018014000100140001401400008014007
:10219000000C01400E4810B50C4901604FF48271EB
:1021A0004160002102228160C0E9031201224261E4
:1021B0005202C0E906210162416281620A21C162C4
:1021C000FFF76BF9002800D0FEE710BD003C00408F
:1021D0006C00002010B5144886B0124901604721F8
:1021E0000024C0E9011440F2E731C0E9031444615E
:1021F0008461FFF7CAFA00B1FEE74FF48050009007
:1022000069460948FFF706FB00B1FEE7049404A9FC
:1022100005480594FFF791FA002800D0FEE706B0C4
:1022200010BD0000002C0140C4000020FEE77047F4
:102230000907090E002806DA00F00F0000F1E0207F
:1022400080F8141D704700F1E02080F800147047FA
:10225000704738B50B46009204460022802100F0FA
:1022600008F8002804D0606D40F02000606503206D
:1022700038BD2DE9F0411D4617460E460446DDF8EF
:10228000188035E0681C33D02DB1FEF7CDFBA0EBF4
:102290000800A8422CD32068416821F0E001416089
:1022A0006068B0F5827F0BD1A068B0F5004F02D016
:1022B000B0F5806F04D12068016821F04001016011
:1022C000A06AB0F5005F0AD1206801684DF6FF7280
:1022D000114001602068016841F400510160012053
:1022E00084F85100002084F850000320BDE8F081FC
:1022F0002068806836EA000004D00020B842C1D1CE
:102300000020F3E70120F9E7704710B5FEF792FBD4
:10231000BDE81040FFF70BBA30B59BB0012528048B
:102320000421CDE902010224CDE908400095019085
:1023300005954FF4E010CDE90A044FF4C0600C900D
:1023400040200D906846FEF7C1FE00B1FEE70F2069
:10235000CDE90E0400204FF48061CDE91001129008
:1023600002210EA8FEF780FD00B1FEE74FF4004009
:102370001590139413A8FEF7B3FC00B1FEE7FEF727
:102380001DFE4FF47A71B0FBF1F0FFF7BCF90420A9
:10239000FFF7ACF90448056700221146501EFEF70E
:1023A000CFFB1BB030BD0000000042421048016866
:1023B00041F00101016041680E4A1140416001682D
:1023C0000D4A11400160016821F4802101604168DB
:1023D00021F4FE014160016821F0A05101604FF439
:1023E0007F0181600021C1620449C0030860704719
:1023F000001002400000FFF0FFFFF6FE08ED00E0D5
:1024000070B51C4D08212846FEF704FB70B1002072
:1024100000EB800040F3931040011D2190FBF1F090
:102420001138002800DC002080B270BD002240215D
:102430002846FEF7F4FAD02000F05AF8002000F009
:1024400057F8902000F054F8002000F051F80446AE
:10245000002000F04DF80146600140EAD100C0F3D1
:102460000B04012240212846FEF7D9FAA4F6FF7496
:102470006042CDE70018014070B51C4D0821284688
:10248000FEF7C8FA80B10024C4EB041040F3132017
:10249000C0EB00100001D92190FBF1F00C380028AE
:1024A00000DC002080B270BD002240212846FEF7EB
:1024B000B6FAD02000F01CF8002000F019F804460D
:1024C000902000F015F80646002000F011F80020DA
:1024D00000F00EF8610141EAD600C0F30B040122BE
:1024E00040212846FEF79BFACEE700000018014085
:1024F0002DE9F0410024144F064625460122802193
:102500003846FEF78CFA300601D5012200E00022A1
:1025100020213846FEF783FA002280213846FEF754
:102520007EFA7006060E6006040E10213846FEF78D
:1025300071FA012801D144F001046D1CEDB2082D9F
:10254000DCD32046BDE8F0810018014010B50648F4
:10255000FFF7DAF900F07AF9002803D1034801689F
:10256000491C016010BD0000C400002018000020BC
:10257000F0B50268194B1A4C1A4D1B4E4FF08047AC
:10258000984207D0B84205D0A04203D0A84201D05B
:10259000B04204D122F0700C4A6842EA0C02984220
:1025A00007D0B84205D0A04203D0A84201D0B04223
:1025B00003D122F44074CA68224322F080044A699D
:1025C000224302608A68C2620A688262984201D12C
:1025D0000969016301214161F0BD0000002C014047
:1025E0000004004000080040000C004010B5846862
:1025F00042EA032224F47F440A432243826010BD4E
:10260000826822F070020A4342F00701816070473D
:1026100010B5036A046A24F001040462846924F09A
:10262000F00444EA021423F00A020A4384610262BD
:1026300010BD10B5036A23F0100303628369046AB6
:1026400023F4704343EA023224F0A00343EA011169
:102650008261016210BD00002DE9F041044600686E
:102660000169E26821F44051114301612169A068C8
:102670000843616908432168CA6841F20C639A43C0
:102680000243CA6020684169A26921F44071114384
:1026900041614C4920686425322688423CD1FEF7CE
:1026A000A3FC00EBC00101EB001061688900B0FBE6
:1026B000F1F7FEF799FC00EBC00101EB0010616837
:1026C000B0468900B0FBF1F0B0FBF5F06FF01801F7
:1026D000484307EB800106EB0110B0FBF5F000F07A
:1026E000F006FEF781FC00EBC00101EB0010616811
:1026F0008900B0FBF1F0B0FBF5F006EB0016FEF739
:1027000073FC00EBC00101EB001061688900B0FBB5
:10271000F1F7FEF769FC3BE0FEF756FC00EBC00169
:1027200001EB001061688900B0FBF1F7FEF74CFC8B
:1027300000EBC00101EB00106168B0468900B0FBFE
:10274000F1F0B0FBF5F06FF01801484307EB8001A2
:1027500006EB0110B0FBF5F000F0F006FEF734FCDC
:1027600000EBC00101EB001061688900B0FBF1F0E3
:10277000B0FBF5F006EB0016FEF726FC00EBC001FF
:1027800001EB001061688900B0FBF1F7FEF71CFC5B
:1027900000EBC00101EB001061688900B0FBF1F0B3
:1027A000B0FBF5F06FF01801484307EB800108EB30
:1027B0000110B0FBF5F0216800F00F003044886094
:1027C000BDE8F081003801402DE9F04198461746F8
:1027D0000E460446069D1DE0681C1BD02DB1FEF779
:1027E00023F9A0EB0800A84214D92068C16821F49D
:1027F000D071C1602068416921F001014161202050
:1028000084F8390084F83A00002084F83800032066
:10281000BDE8F0812068006836EA000004D000209E
:10282000B842D9D00020F3E70120F9E7FEE702E043
:1028300008C8121F08C1002AFAD17047704700204B
:1028400001E001C1121F002AFBD170470549002099
:1028500051F820200AB100207047401C0528F7DB02
:1028600001207047280000201249012801DC0520C2
:1028700012E002280FD0032810D0042810D0052819
:1028800010D0062810D0072810D0082810D009280A
:1028900003D1642000E00F20886070471920FBE717
:1028A0002320F9E72D20F7E73720F5E74620F3E767
:1028B0005520F1E70C00002010B50022064B06E081
:1028C00053F822408C4201D1002010BD521C82429C
:1028D000F6DB012010BD0000280000200020044984
:1028E000024600BF41F82020401C0528FADB704753
:1028F000280000202DE9F0471F4615460E46DDF85A
:102900002090FFF70BFA784206EB0018C9EBC900DC
:1029100000EB400034464719A1B2E8B22022FFF78D
:10292000A1F9103CA045F7DD15353446AF42F3DC84
:10293000BDE8F08708B5FEF785F8FFF7EDFCFFF777
:10294000A3FBAE48AC494FF0000901604FF4E13100
:10295000C0E901190C22C0F80C90C0E90492C0F83B
:102960001890C0F81C90FFF786F800B1FEE7FFF75B
:1029700031FCFFF70FFCFFF765FBA048C838FDF7F7
:10298000CDFC9E48C838FDF7F5FEFFF7E3F99B48FC
:1029900000273E464038FEF731FFDFF864B2994C1D
:1029A000FFF72EFD8046FFF767FD054617B1012FA3
:1029B0004AD0B8E0002E34D14FF6FF70FFF736F959
:1029C0001F20FFF7ABF94FF6FF70FFF7BBF98EA1A1
:1029D0000020FFF753F94FF6FF70FFF79FF9002033
:1029E000FFF7B0F98EA13020FFF748F992A1A82097
:1029F000FFF744F903264FF4784A05235A224FF48F
:102A0000877150460096FFF775FF05235A228C21E7
:102A100050460096FFF76EFF4FF6FF70FFF77EF906
:102A20000126B8F1000F7ED0002D7CD0B8F1A00FA8
:102A300079D9782D77D901274FF6FF70FFF7F6F88F
:102A40004FF00008454601E0002E48D11F20FFF757
:102A500065F90020FFF776F97CA10020FFF70EF959
:102A60004FF6FF70FFF75AF97EA11820FFF706F91D
:102A700082A17820FFF702F903264FF4877A052315
:102A8000322251464FF478400096FFF733FF05237A
:102A900032228C214FF478400096FFF72BFF05235C
:102AA000912251464FF478400096FFF723FF05230B
:102AB00091228C214FF478400096FFF71BFF4FF4D2
:102AC000FC60FFF72BF90020FFF73CF971A1D8203B
:102AD000FFF7D4F84FF6FF70FFF720F90126B8F1A1
:102AE000000F20D0A5B1D82D01D900273E46B8F15E
:102AF000A00F05D98C2D0CD2102D14D31F2005E06A
:102B00008C2D0BD2102D0ED34FF47840FFF78EF89A
:102B100009E0D82D07D24FF6E070F7E7D82D02D2A2
:102B20004FF4FC60F2E735486421C838FDF78AFDB0
:102B30000028F8D13148C838FDF7D2FC009000EBEE
:102B40008000C0F3D320FFF78FFE2C4D8246DC3D82
:102B5000286808B9C4F80C901021D8465846FDF7EB
:102B600059FF012806D124212069FFF7A5FE08B1ED
:102B7000242125E020214046FDF74CFF012806D105
:102B800026212069FFF798FE08B1262118E0402190
:102B90004046FDF73FFF012806D128212069FFF7B5
:102BA0008BFE08B128210BE080214046FDF732FF63
:102BB00001280CD129212069FFF77EFE38B1292197
:102BC0002069042845F8201001DA401C2061E068E3
:102BD0003228FFF6E5AE504600F0A6F8C820FDF713
:102BE00029FE504600F062F84B46C4F80C90FFF7FF
:102BF00075FE2361D4E6000000440040040100207B
:102C0000000801400C00002020202020204D494ECB
:102C100049205049414E4F20202020200000000034
:102C20002020202053656C65637420204D656E75EF
:102C3000202020200000000020496E737472756D02
:102C4000656E742047616D65202020002053656CFF
:102C500065637420496E737472756D656E7420209F
:102C60000000000020202020496E73312020202009
:102C7000496E7332202020200000000020202020F8
:102C8000496E733320202020496E73342020202089
:102C90000000000020202020202020204261636BC3
:102CA00020202020202020200000000070B5064DAC
:102CB0000646002455F8240010B1314600F006F80D
:102CC000641C052CF6DB70BD280000200EB5002228
:102CD000009201920292124A12798DF800008DF84A
:102CE00008208DF8041002A8FDF78FFA82B2642341
:102CF00002A90C48FEF724FF6846FDF786FA82B267
:102D0000642369460748FEF71BFF01A8FDF77DFA1B
:102D100082B2642301A90348FEF712FF0EBD000032
:102D20000C0000200401002070B5064D064600246A
:102D300055F8240010B1314600F006F8641C052C4B
:102D4000F6DB70BD280000200EB500220092019233
:102D50000292124A12788DF804008DF800208DF846
:102D600008106846FDF751FA82B2642369460C48A0
:102D7000FEF7E6FE01A8FDF748FA82B2642301A936
:102D80000748FEF7DDFE02A8FDF73FFA82B2642392
:102D900002A90348FEF7D4FE0EBD00000C0000207F
:102DA00004010020000000000000000001020304F4
:102DB00006070809000000000102030400000000EB
:102DC0000000000000000000000000000000000003
:102DD00000000000000000000000000000000000F3
:102DE0000000000000000000000000000000800162
:102DF00080018001800180018001800180018001CB
:102E000080018001800180010000000080018001BC
:102E100000000000000000000000000000000000B2
:102E2000CC00CC00CC00CC00CC00CC0000000000DA
:102E30000000000000000000000000000000000092
:102E40000000000000000000000000000000000082
:102E50000000000000000000600C600C600C3006F8
:102E60003006FE1FFE1F300638071803FE1FFE1F28
:102E7000180318038C018C018C01000000008000F5
:102E8000E003F80F9C0E8C1C8C188C009800F80145
:102E9000E007800E801C8C188C189C18B80CF00F62
:102EA000E00380008000000000000000000000003F
:102EB00000000E181B0C110C110611061103110352
:102EC0009B018E01C038C06C604460443044304483
:102ED0001844186C0C380000000000000000E001ED
:102EE000F0033807180618063003F001F000F80068
:102EF0009C310E33061E061C061C063FFC73F02197
:102F000000000000000000000000000000000000C1
:102F10000C000C000C000C000C000C000000000069
:102F200000000000000000000000000000000000A1
:102F3000000000000000000000000000000000028F
:102F400000038001C000C00060006000300030005D
:102F50003000300030003000300030006000600091
:102F6000C000C0008001000300020000000020003B
:102F70006000C0008001800100030003000600061D
:102F80000006000600060006000600060003000317
:102F900080018001C00060002000000000000000EF
:102FA0000000000000000000C000C000D806F807C4
:102FB000E0013003380700000000000000000000BE
:102FC0000000000000000000000000000000000001
:102FD00000000000000000008001800180018001ED
:102FE0008001FC3FFC3F8001800180018001800165
:102FF00000000000000000000000000000000000D1
:1030000000000000000000000000000000000000C0
:10301000000000000000000000000000000080012F
:10302000800100010001800000000000000000009D
:103030000000000000000000000000000000000090
:1030400000000000E007E0070000000000000000B2
:103050000000000000000000000000000000000070
:103060000000000000000000000000000000000060
:103070000000000000000000000000000000C00090
:10308000C000000000000000000000000000000C74
:10309000000C000600060006000300030003800386
:1030A000800180018001C000C000C000600060009D
:1030B0000000000000000000000000000000E0032D
:1030C000F007380E180C0C180C180C180C180C18EB
:1030D0000C180C180C180C18180C380EF007E0031C
:1030E00000000000000000000000000000000001DF
:1030F0008001C001F00198018801800180018001F8
:1031000080018001800180018001800180018001B7
:103110000000000000000000000000000000E003CC
:10312000F80F180C0C180C1800180018000C0006EA
:1031300000038001C000600030001800FC1FFC1F6D
:103140000000000000000000000000000000E0019E
:10315000F807180E0C0C0C0C000C0006C003C0077E
:10316000000C001800180C180C18180CF807E003D5
:103170000000000000000000000000000000000C43
:10318000000E000F000F800DC00C600C600C300CA6
:10319000180C0C0CFC3FFC3F000C000C000C000C4D
:1031A0000000000000000000000000000000F80F18
:1031B000F80F180018000C00EC03FC071C0E001C94
:1031C0000018001800180C181C0C180EF807E00363
:1031D0000000000000000000000000000000C00728
:1031E000F00F381C181818000C00CC03EC0F3C0E24
:1031F0001C1C0C180C180C18181C380EF007E003D7
:103200000000000000000000000000000000FC1FA3
:10321000FC1F000C00060006000380038001C001B3
:10322000C000E0006000600070003000300030003E
:103230000000000000000000000000000000E003AB
:10324000F007380E180C180C180C3806F007F007A9
:10325000180C0C180C180C180C18380CF80FE0038C
:103260000000000000000000000000000000E0037B
:10327000F007380E1C0C0C180C180C181C1C381EEF
:10328000F81BE0190018000C000C1C0EF807F001E8
:10329000000000000000000000000000000000002E
:1032A000000000000000000080018001000000001C
:1032B000000000000000000000000000800180010C
:1032C00000000000000000000000000000000000FE
:1032D00000000000000000008001800100000000EC
:1032E00000000000000000000000000080018001DC
:1032F000000100018000000000000000000000004C
:103300000000000000000000000000000010001C91
:10331000800FE003F8001800F800E003800F001CA5
:10332000001000000000000000000000000000008D
:10333000000000000000000000000000F81F000076
:1033400000000000F81F0000000000000000000066
:10335000000000000000000000000000000000006D
:10336000000000000000000000000000080038001D
:10337000F001C007001F0018001FC007F00138004F
:103380000800000000000000000000000000E00352
:10339000F80F180C0C180C180018000C000600038D
:1033A0008001C000C000C00000000000C000C000DC
:1033B000000000000000000000000000000000000D
:1033C000E00718180420C229224A1144094409447C
:1033D000094409221113E20C024004201818E007E6
:1033E000000000000000000000000000000080035A
:1033F0008003C006C006C006600C600C3018301890
:103400003018F83FF83F1C700C600C6006C006C016
:103410000000000000000000000000000000FC03AD
:10342000FC0F0C0C0C180C180C180C0CFC07FC0FE7
:103430000C180C300C300C300C300C18FC1FFC0736
:103440000000000000000000000000000000C007B5
:10345000F01F38381C300C700660060006000600AD
:1034600006000600060006600C701C30F01FE00726
:103470000000000000000000000000000000FE034B
:10348000FE0F060E06180618063006300630063007
:1034900006300630063006180618060EFE0FFE032C
:1034A0000000000000000000000000000000FC3FE1
:1034B000FC3F0C000C000C000C000C00FC1FFC1F5F
:1034C0000C000C000C000C000C000C00FC3FFC3F3E
:1034D0000000000000000000000000000000F83FB5
:1034E000F83F18001800180018001800F81FF81FFF
:1034F000180018001800180018001800180018000C
:103500000000000000000000000000000000E00FCC
:10351000F83F3C780E6006E007C00300030003FE9E
:1035200003FE03C007C006C00EC03CF0F83FE00F2A
:1035300000000000000000000000000000000C304F
:103540000C300C300C300C300C300C30FC3FFC3F9D
:103550000C300C300C300C300C300C300C300C308B
:1035600000000000000000000000000000008001DA
:103570008001800180018001800180018001800143
:103580008001800180018001800180018001800133
:103590000000000000000000000000000000000625
:1035A00000060006000600060006000600060006EB
:1035B000000600060006180618063807F003E001AA
:1035C00000000000000000000000000000000630C5
:1035D0000618060C060606038601C600660076007D
:1035E000DE008E0106030606060C0618063006608D
:1035F00000000000000000000000000000001800B3
:1036000018001800180018001800180018001800FA
:10361000180018001800180018001800F81FF81FEC
:1036200000000000000000000000000000000EE0AC
:103630001EF01EF01EF036D836D836D836D866CCF6
:1036400066CC66CCC6C6C6C6C6C6C6C686C386C354
:1036500000000000000000000000000000000C302E
:103660001C303C303C306C306C30CC30CC308C3149
:103670000C330C330C360C360C3C0C3C0C380C3038
:103680000000000000000000000000000000E00753
:10369000F81F1C380E70066003C003C003C003C0CF
:1036A00003C003C003C006600E701C38F81FE0079B
:1036B0000000000000000000000000000000FC0FFF
:1036C000FC1F0C380C300C300C300C300C18FC1F6C
:1036D000FC070C000C000C000C000C000C000C0093
:1036E0000000000000000000000000000000E007F3
:1036F000F81F1C380E70066003E003C003C003C04F
:1037000003C003C007E006630E3F1C3CF83FE0F730
:1037100000C0000000000000000000000000FE0FDC
:10372000FE1F06380630063006300638FE1FFE073C
:1037300006030606060C0618061806300630066054
:103740000000000000000000000000000000E00396
:10375000F80F1C0C0C180C180C001C00F803E00FE0
:10376000001E0038063006300E301C1CF80FE00733
:103770000000000000000000000000000000FE7FCC
:10378000FE7F800180018001800180018001800135
:103790008001800180018001800180018001800121
:1037A00000000000000000000000000000000C30DD
:1037B0000C300C300C300C300C300C300C300C3029
:1037C0000C300C300C300C300C301818F81FE0079F
:1037D0000000000000000000000000000000036086
:1037E0000630063006300C180C180C18180C180C83
:1037F000380E30063006700760036003C001C00158
:103800000000000000000000000000000000036055
:10381000C361C361C361663366336633663366333F
:1038200066336C1B6C1B6C1B2C1A3C1E380E380E3E
:1038300000000000000000000000000000000FE099
:103840000C7018303018700C600EC00780038003B5
:10385000C003E006700C301C18180C300E6007E036
:10386000000000000000000000000000000003C095
:1038700006600C301C383818300C6006E007C003B6
:103880008001800180018001800180018001800130
:103890000000000000000000000000000000FC7FAD
:1038A000FC7F006000300018000C0006000380015F
:1038B000C0006000300018000C000600FE7FFE7F94
:1038C0000000000000000000000000000000E00315
:1038D000E003600060006000600060006000600065
:1038E00060006000600060006000600060006000D8
:1038F000600060006000E003E003000000003000B2
:103900003000600060006000C000C000C000C00166
:10391000800180018001000300030003000600060F
:103920000000000000000000000000000000E003B4
:10393000E00300030003000300030003000300038F
:10394000000300030003000300030003000300035F
:10395000000300030003E003E00300000000000098
:10396000C001C00160036003600330063006180C1C
:10397000180C000000000000000000000000000023
:103980000000000000000000000000000000000037
:103990000000000000000000000000000000000027
:1039A0000000000000000000000000000000FFFF19
:1039B000FFFF0000000000000000000000000C00FD
:1039C0000C000C000C000C000C00000000000000BB
:1039D00000000000000000000000000000000000E7
:1039E00000000000000000000000000000000000D7
:1039F0000000000000000000F003F8071C0C0C0C95
:103A0000000FF00FF80C0C0C0C0C1C0FF80FF0183A
:103A1000000000000000000000000000000018008E
:103A20001800180018001800D803F80F380C1818E0
:103A300018181818181818181818380CF80FD80370
:103A40000000000000000000000000000000000076
:103A50000000000000000000C003F007300E180C4A
:103A60001800180018001800180C300EF007C003DA
:103A7000000000000000000000000000000000182E
:103A80000018001800180018C01BF01F301C181870
:103A900018181818181818181818301CF01FC01B00
:103AA0000000000000000000000000000000000016
:103AB0000000000000000000C003F00F300C1818D8
:103AC000F81FF81F180018003818301CF00FC00736
:103AD0000000000000000000000000000000800F57
:103AE000C00FC000C000C000F007F007C000C00059
:103AF000C000C000C000C000C000C000C000C000C6
:103B000000000000000000000000000000000000B5
:103B10000000000000000000E00DF80F180E0C0C73
:103B20000C0C0C0C0C0C0C0C0C0C180EF80FE00D03
:103B3000000C0C0C1C06F807F00100000000180037
:103B40001800180018001800D807F80F381C1818AB
:103B500018181818181818181818181818181818E5
:103B60000000000000000000000000000000C00095
:103B7000C000000000000000C000C000C000C00085
:103B8000C000C000C000C000C000C000C000C00035
:103B90000000000000000000000000000000C00065
:103BA000C000000000000000C000C000C000C00055
:103BB000C000C000C000C000C000C000C000C00005
:103BC000C000C000C000F8007800000000000C0039
:103BD0000C000C000C000C000C0C0C060C038C01EF
:103BE000CC006C00FC009C018C030C030C060C0C3C
:103BF0000000000000000000000000000000C00005
:103C0000C000C000C000C000C000C000C000C000B4
:103C1000C000C000C000C000C000C000C000C000A4
:103C20000000000000000000000000000000000094
:103C300000000000000000007C3CFF7EC7E383C161
:103C400083C183C183C183C183C183C183C183C154
:103C50000000000000000000000000000000000064
:103C600000000000000000009807F80F381C18182A
:103C700018181818181818181818181818181818C4
:103C80000000000000000000000000000000000034
:103C90000000000000000000C003F00F300C1818F6
:103CA00018181818181818181818300CF00FC00326
:103CB0000000000000000000000000000000000004
:103CC0000000000000000000D803F80F380C18189E
:103CD00018181818181818181818380CF80FD803CE
:103CE000180018001800180018000000000000005C
:103CF0000000000000000000C01BF01F301C18185E
:103D000018181818181818181818301CF01FC01B8D
:103D1000001800180018001800180000000000002B
:103D20000000000000000000B007F0037000300049
:103D30003000300030003000300030003000300003
:103D40000000000000000000000000000000000073
:103D50000000000000000000E003F003380E180C23
:103D60003800F003C007000C180C380EF007E00311
:103D70000000000000000000000000000000000043
:103D80008000C000C000C000F007F007C000C00005
:103D9000C000C000C000C000C000C000C007800755
:103DA0000000000000000000000000000000000013
:103DB0000000000000000000181818181818181843
:103DC00018181818181818181818381CF01FE019A7
:103DD00000000000000000000000000000000000E3
:103DE00000000000000000000C18180C180C180C43
:103DF000300630063006600360036003C001C00176
:103E000000000000000000000000000000000000B2
:103E10000000000000000000C141C141C3616363B4
:103E2000636363633636363636361C1C1C1C1C1C1A
:103E30000000000000000000000000000000000082
:103E400000000000000000001C38381C300C600628
:103E500060036003600360036006300C381C1C388C
:103E60000000000000000000000000000000000052
:103E700000000000000000001830301830187018E2
:103E8000600C600CE00CC006C00680038003800359
:103E900080018001C001F0007000000000000000FF
:103EA0000000000000000000FC1FFC1F000C0006CA
:103EB00000038001C000600030001800FC1FFC1FE0
:103EC00000000000000000000000000000000003EF
:103ED0008001C000C000C000C000C000C000600081
:103EE0006000300060004000C000C000C000C000A2
:103EF000C000C0008001000300000000000080013D
:103F000080018001800180018001800180018001A9
:103F10008001800180018001800180018001800199
:103F200080018001800180018001000000006000AC
:103F3000C000C00180018001800180018001000378
:103F40000003000600030001800180018001800160
:103F500080018001C000600000000000000000003F
:103F6000000000000000000000000000F010F81F3A
:103F7000080F00000000000000000000000000002A
:103F8000000000000000000000000000AC3F00083E
:103F900000000020280000002E280008D43F000860
:103FA00028000020200500003E2800080100000035
:103FB00010000000000000009000000080000000E1
:103FC00000000000000000000000000000A24A0401
:043FD0000000FFFFEF
:04000005080001519D
:00000001FF
